:100000000C943E000C945B000C945B000C945B0021
:100010000C945B000C945B000C945B000C945B00F4
:100020000C945B000C945B000C945B000C945B00E4
:100030000C945B000C945B000C945B000C945B00D4
:100040000C945B000C945B000C94FD000C945B0022
:100050000C945B000C945B000C945B000C945B00B4
:100060000C9422010C945B000C945B000C945B00DC
:100070000C945B000C945B000C945B0011241FBE7D
:10008000CFEFD0E1DEBFCDBF11E0A0E0B1E0EAEB01
:10009000FCE002C005900D92AC35B107D9F711E034
:1000A000ACE5B1E001C01D92A237B107E1F70E94B3
:1000B00097010C945B060C940000982F8091C80067
:1000C00085FFFCCF9093CE0008958091C80087FFF4
:1000D000FCCF8091CE000895009781F461307105C6
:1000E00019F447BD789422C084B584BD85B582607B
:1000F00085BD789480916E0081601BC08130910530
:1001000071F46130710519F55093890040938800AE
:10011000789480916F00826080936F0008950297B9
:10012000B1F06130710541F447BD789480916E0063
:10013000826080936E00089584B584BD85B5826029
:1001400085BD789480916E00816080936E000895E3
:100150008823A1F0813059F4962F88279093890045
:100160008093880070938B0060938A00089582309A
:1001700029F41092B3006093B400089567BD089508
:10018000ECE7F0E09081907190839081982B9083C0
:1001900010927B008FEE80937A000895F894EAE73E
:1001A000F0E080818F778083ECE7F0E080818F61E1
:1001B0008083109278001092790078940895ECE78B
:1001C000F0E09081907E90839081982B9083209195
:1001D000780030E040917900942F80E0282B392B73
:1001E000C9010895F894ECE7F0E09081907E908347
:1001F0009081982B9083789408951F920F920FB658
:100200000F9211248F939F93AF93BF9380915E01C0
:1002100090915F01A0916001B09161010196A11DD3
:10022000B11D80935E0190935F01A0936001B09334
:100230006101BF91AF919F918F910F900FBE0F9071
:100240001F9018951F920F920FB60F9211242F93A3
:100250003F934F938F939F93EF93FF93ECE7F0E0DF
:100260008081807E8083808184608083209178007B
:1002700030E040917900942F80E0822B932B909373
:10028000670180936601FF91EF919F918F914F914C
:100290003F912F910F900FBE0F901F901895DF93F5
:1002A000CF93CDB7DEB7E0970FB6F894DEBF0FBEA1
:1002B000CDBF9B01AC01DE011196EBE2F1E080E3E2
:1002C00001900D928150E1F7FE013196BE016F5C05
:1002D0007F4F80819181A281B381281739074A0716
:1002E0005B0721F03496E617F70799F70E94A00202
:1002F00080E28093C80086E08093CA008091C800A5
:100300008D7F8093C8008091C90088618093C90067
:1003100089E090E09093CD008093CC00E0960FB6FA
:10032000F894DEBF0FBECDBFCF91DF9108956F92DD
:100330007F928F929F92AF92BF92CF92DF92EF9275
:10034000FF920F931F93DF93CF93CDB7DEB7C15DBD
:10035000D7400FB6F894DEBF0FBECDBF80E88093C4
:10036000610060E072EC81E090E00E944F0180E06B
:1003700090E060E070E040E050E00E946C0080910E
:100380007C00807180937C0080917C0084608093ED
:100390007C0010927B008FEE80937A00789414B8E2
:1003A0008FEF8BB980EF84B911B8CC24DD245E01C6
:1003B0000894A11CB11C50E0652E51E0752E4CE252
:1003C000842E912CCF52D84F1882C15DD740809196
:1003D000290084FD70C080912900829586958170E6
:1003E000209129002295269526952170409129007B
:1003F000441F4427441F30E090E02823392350E075
:1004000024233523232B09F456C010925E01109249
:100410005F0110926001109261018601000F111FAF
:100420000A0D1B1D34C060915E0170915F018091C7
:1004300060019091610121E0CF52D84F2883C15DC6
:10044000D74028E230E040E050E00E9438036115D8
:10045000710581059105D9F485B1809585B98091A3
:10046000660190916701D8018D939C9380915E0104
:1004700090915F01A0916001B0916101F8019383B7
:10048000828382E090E0C80ED91E0C5F1F4F6091FE
:100490005E0170915F01809160019091610128E29D
:1004A00033E240E050E00E94380361157105810598
:1004B000910509F0B8CFCF52D84F9881C15DD74090
:1004C000913009F084CF85017601F694E794EE0C23
:1004D000FF1CEE0CFF1CEA0CFB1C2DC0ADB7BEB719
:1004E00018970FB6F894BEBF0FBEADBFEDB7FEB7FD
:1004F000319612967C926E921197D8018D919C91B3
:100500001197938382839582848212968D919C9118
:10051000139769E070E00E942503778366830E9449
:100520006E030C5F1F4FEDB7FEB738960FB6F89409
:10053000FEBF0FBEEDBF0E151F0509F443CFCECF92
:100540008DE191E090936F0180936E0160E072EC19
:1005500081E090E00E94B20208950E945D0080E078
:1005600090E008959B01AC0184E0220F331F441FEB
:10057000551F8A95D1F760E070E489E191E00E940F
:100580003803215030403093C5002093C40088E1E7
:100590008093C10086E08093C2000895982F8091D7
:1005A000C00085FFFCCF9093C6000895FC0107C0F2
:1005B0008091C00085FFFCCF9093C600319690815A
:1005C0009923B1F708950F931F93DF93CF93CDB77E
:1005D000DEB764970FB6F894DEBF0FBECDBF2DB760
:1005E0003EB7285030400FB6F8943EBF0FBE2DBF27
:1005F000EDB7FEB731968E010F5F1F4FADB7BEB797
:1006000012961C930E93119729E031E033832283D5
:1006100095838483778366830E9483032DB73EB7D7
:10062000285F3F4F0FB6F8943EBF0FBE2DBFC801E5
:100630000E94D60264960FB6F894DEBF0FBECDBFFF
:10064000CF91DF911F910F91089597FB092E0726F7
:100650000AD077FD04D02ED006D000201AF4709571
:1006600061957F4F0895F6F7909581959F4F089576
:10067000A1E21A2EAA1BBB1BFD010DC0AA1FBB1FA6
:10068000EE1FFF1FA217B307E407F50720F0A21B18
:10069000B30BE40BF50B661F771F881F991F1A9485
:1006A00069F760957095809590959B01AC01BD01AF
:1006B000CF010895AA1BBB1B51E107C0AA1FBB1F96
:1006C000A617B70710F0A61BB70B881F991F5A95DE
:1006D000A9F780959095BC01CD010895A0E0B0E008
:1006E000E4E7F3E00C943406FE01359661917191D4
:1006F00080916E0190916F01AF010E94A703209637
:10070000E2E00C945006AEE0B0E0E9E8F3E00C94CF
:1007100032060D891E8986E08C831A8309838FEF48
:100720009FE79E838D839E01275E3F4FCE010196FA
:100730006F89788DA9010E94A7032F813885020F48
:10074000131FF80110822E96E4E00C944E06ABE0E5
:10075000B0E0EDEAF3E00C9424063C012B015A01D1
:10076000FC0117821682838181FD03C06FEF7FEF4A
:10077000C6C19AE0892E1E010894211C311CF30188
:100780002381F20123FD859123FF81912F0188238D
:1007900009F4B2C1853239F423FD859123FF81919B
:1007A0002F01853229F490E0B3010E949A05E7CF2A
:1007B000982FFF24EE249924FFE1FF15D0F09B32FF
:1007C00069F09C3228F4903259F0933291F40EC0C3
:1007D0009D3249F0903369F441E024C052E0F52A9B
:1007E00084E0F82A28C098E0F92A25C0E0E1FE2A32
:1007F00022C0F7FC29C0892F80538A3070F4F6FE9E
:1008000005C0989C902C1124980E15C0E89CE02CF3
:100810001124E80EF0E2FF2A0EC09E3229F4F6FC05
:100820006BC140E4F42A07C09C3619F450E8F52A5D
:1008300002C0983649F4F20123FD959123FF91916E
:100840002F01992309F0B8CF892F8554833018F0F0
:100850008052833038F444E050E0A40EB51E5FE3CC
:1008600059830FC0933631F0933779F0933509F0FF
:1008700056C020C0F5018081898342E050E0A40E7B
:10088000B51E610101E010E012C0F501C080D18009
:10089000F6FC03C06FEF7FEF02C0692D70E042E00D
:1008A00050E0A40EB51EC6010E948F058C015FE7C3
:1008B000F52214C0F501C080D180F6FC03C06FEFB3
:1008C0007FEF02C0692D70E042E050E0A40EB51E3B
:1008D000C6010E9484058C0150E8F52AF3FE07C08A
:1008E0001AC080E290E0B3010E949A05EA948E2D2E
:1008F00090E008171907A8F30EC0F601F7FC8591E0
:10090000F7FE81916F0190E0B3010E949A05E1101A
:10091000EA94015010400115110579F7EAC09436A8
:1009200011F0993669F5F7FE08C0F5012081318193
:100930004281538184E090E00AC0F5018081918179
:100940009C01442737FD4095542F82E090E0A80E8B
:10095000B91E9FE6F92257FF09C050954095309582
:1009600021953F4F4F4F5F4FE0E8FE2ACA01B90182
:10097000A1012AE030E00E94C605D82ED21840C05E
:10098000953729F41F2D1F7E2AE030E01DC01F2D52
:10099000197F9F3661F0903720F4983509F0ACC08C
:1009A0000FC0903739F0983709F0A6C004C028E08E
:1009B00030E00AC0106114FD146020E130E004C092
:1009C00014FD166020E132E017FF08C0F5016081D8
:1009D00071818281938144E050E008C0F5018081FB
:1009E0009181BC0180E090E042E050E0A40EB51E91
:1009F000A1010E94C605D82ED2188FE7F82EF12249
:100A0000F6FE0BC05EEFF522D91438F4F4FE07C0F1
:100A1000F2FC05C08FEEF82202C01D2D01C0192D79
:100A2000F4FE0DC0FE01ED0DF11D8081803319F43F
:100A300099EEF92208C01F5FF2FE05C003C08F2D9A
:100A4000867809F01F5F0F2DF3FC14C0F0FE0FC075
:100A50001E1510F09D2C0BC09D2C9E0C911A1E2D66
:100A600006C080E290E0B3010E949A051F5F1E1548
:100A7000C0F304C01E1510F4E11A01C0EE2404FFF7
:100A80000FC080E390E0B3010E949A0502FF1DC0F1
:100A900001FD03C088E790E00EC088E590E00BC040
:100AA000802F867891F001FF02C08BE201C080E2C6
:100AB000F7FC8DE290E0B3010E949A0506C080E346
:100AC00090E0B3010E949A059A94D914C0F3DA9485
:100AD000F101ED0DF11D808190E0B3010E949A05B6
:100AE000DD20A9F706C080E290E0B3010E949A05DC
:100AF000EA94EE20C1F743CEF30166817781CB0102
:100B00002B96E2E10C944006FC0105906150704088
:100B10000110D8F7809590958E0F9F1F0895FC01C6
:100B20006150704001900110D8F7809590958E0F1C
:100B30009F1F08950F931F93CF93DF938C01EB01B9
:100B40008B8181FF1BC082FF0DC02E813F818C8174
:100B50009D812817390764F4E881F9810193F983AD
:100B6000E88306C0E885F985802F0995892B31F443
:100B70008E819F8101969F838E8302C00FEF1FEFAE
:100B8000C801DF91CF911F910F910895FA01AA2713
:100B9000283051F1203181F1E8946F936E7F6E5FC0
:100BA0007F4F8F4F9F4FAF4FB1E03ED0B4E03CD06E
:100BB000670F781F891F9A1FA11D680F791F8A1F51
:100BC000911DA11D6A0F711D811D911DA11D20D0B8
:100BD00009F468943F912AE0269F11243019305D72
:100BE0003193DEF6CF010895462F4770405D419363
:100BF000B3E00FD0C9F7F6CF462F4F70405D4A33B0
:100C000018F0495D31FD4052419302D0A9F7EACF77
:100C1000B4E0A6959795879577956795BA95C9F7A6
:100C200000976105710508959B01AC010A2E069499
:100C30005795479537952795BA95C9F7620F731F52
:100C4000841F951FA01D08952F923F924F925F928F
:100C50006F927F928F929F92AF92BF92CF92DF92CC
:100C6000EF92FF920F931F93CF93DF93CDB7DEB731
:100C7000CA1BDB0B0FB6F894DEBF0FBECDBF0994C5
:100C80002A88398848885F846E847D848C849B841C
:100C9000AA84B984C884DF80EE80FD800C811B812A
:100CA000AA81B981CE0FD11D0FB6F894DEBF0FBE59
:0A0CB000CDBFED010895F894FFCFC9
:100CBA002564256325640A0D00536574736572768D
:100CCA006F2825642C25303364290A0D00000000A2
:100CDA000200000000AD020000000060090000C030
:100CEA001200008025000040380000004B00008000
:100CFA007000000096000000E10000002C010000D6
:0C0D0A00C201000084030090D003000030
:00000001FF
