:100000000C943E000C945B000C945B000C945B0021
:100010000C945B000C945B000C945B000C945B00F4
:100020000C945B000C945B000C945B000C945B00E4
:100030000C945B000C945B000C945B000C945B00D4
:100040000C945B000C945B000C945B000C945B00C4
:100050000C945B000C945B000C945B000C945B00B4
:100060000C945B000C945B000C945B000C945B00A4
:100070000C945B000C945B000C945B0011241FBE7D
:10008000CFEFD0E1DEBFCDBF11E0A0E0B1E0ECE802
:10009000FDE002C005900D92A033B107D9F711E041
:1000A000A0E3B1E001C01D92A833B107E1F70E94BF
:1000B00079010C94C4060C94000093E890937A00A4
:1000C000F894ECE7F0E09081907E90839081982BFB
:1000D000908378940895F894EAE7F0E080818F7730
:1000E0008083ECE7F0E080818F618083E8E7F0E0D7
:1000F000808180831092790078940895F89490918B
:100100007C00907E90937C0090917C00982B909343
:100110007C00789480917A00806480937A0080914A
:100120007A0084FFFCCF2091780030917900C901DA
:100130000895F894ECE7F0E09081907E90839081B0
:10014000982B9083789408958091C80087FFFCCF06
:100150008091CE000895982F8091C80085FFFCCF34
:100160009093CE000895EF92FF920F931F937B011F
:100170008C010E94A60134E0EE0CFF1C001F111F31
:100180003A95D1F760E070E489E191E0A801970128
:100190000E94B503C901DA010197A109B109292F0C
:1001A0003A2F4B2F55270196A11DB11D2093CD004D
:1001B00081508093CC0088E18093C9008EE08093C9
:1001C000CA001F910F91FF90EF90089560E072ECCC
:1001D00081E090E00E94B3000E94A60183E090E0DD
:1001E0000E945D0080E092E10197F1F783E090E0EA
:1001F0000E947E008E5B9040AA2797FDA095BA2FA3
:10020000BC01CD010E94C6022FE833EE48E850E45D
:100210000E942B020E949302CB0108958F929F921D
:10022000AF92BF92CF92DF92EF92FF920F931F9304
:1002300060E072EC81E090E00E94B3000E94A601B1
:1002400083E090E00E945D0083E090E00E947E00E9
:100250007C010E94E6004C018DB79EB70C970FB64B
:10026000F8949EBF0FBE8DBFCDB6DEB60894C11CFC
:10027000D11C80E091E0EDB7FEB792838183F60157
:10028000F382E2828CE2A82EB12CB582A4820027F0
:10029000F7FC0095102FC801B7010E94C6022AE999
:1002A00039E94CE453E40E942B0220E030E04AE7B5
:1002B00054E40E9452030E949302F60177836683FE
:1002C000B186A086938682860E94D7038DB79EB79B
:1002D0000C960FB6F8949EBF0FBE8DBF1F910F9165
:1002E000FF90EF90DF90CF90BF90AF909F908F9056
:1002F00008950E940E01FDCF892BB1F46130710584
:1003000041F447BD789480916E00826080936E00C6
:10031000089584B584BD85B5826085BD789480914B
:100320006E00816080936E000895882369F08130AB
:1003300059F4962F882790938900809388007093B2
:100340008B0060938A00089567BD089581E291E073
:10035000909335018093340160E072EC81E090E08D
:100360000E94B80108950E94AB0080E090E00895DB
:100370009B01AC0184E0220F331F441F551F8A9557
:10038000D1F760E070E489E191E00E94B50321506B
:1003900030403093C5002093C40088E18093C100B1
:1003A00086E08093C2000895982F8091C00085FF59
:1003B000FCCF9093C6000895FC0107C08091C00057
:1003C00085FFFCCF9093C600319690819923B1F7B9
:1003D00008950F931F93DF93CF93CDB7DEB7649744
:1003E0000FB6F894DEBF0FBECDBF2DB73EB7285075
:1003F00030400FB6F8943EBF0FBE2DBFEDB7FEB72D
:1004000031968E010F5F1F4FADB7BEB712961C938A
:100410000E9311972DE031E03383228395838483FB
:10042000778366830E94EC032DB73EB7285F3F4F6A
:100430000FB6F8943EBF0FBE2DBFC8010E94DC016D
:1004400064960FB6F894DEBF0FBECDBFCF91DF919B
:100450001F910F9108950CD0EBC0E3D040F0DAD09B
:1004600030F021F45F3F19F0CCC0511115C1CFC05D
:10047000F0D098F39923C9F35523B1F3951B550B8D
:10048000BB27AA2762177307840738F09F5F5F4F67
:10049000220F331F441FAA1FA9F333D00E2E3AF0A8
:1004A000E0E830D091505040E695001CCAF729D0C2
:1004B000FE2F27D0660F771F881FBB1F2617370711
:1004C0004807AB07B0E809F0BB0B802DBF01FF2741
:1004D00093585F4F2AF09E3F510568F092C0DCC0F0
:1004E0005F3FECF3983EDCF3869577956795B7957B
:1004F000F7959F5FC9F7880F911D9695879597F996
:100500000895E1E0660F771F881FBB1F621773070E
:100510008407BA0720F0621B730B840BBA0BEE1F23
:1005200088F7E095089504D06894B111B5C0089596
:1005300098D088F09F5790F0B92F9927B751A0F025
:10054000D1F0660F771F881F991F1AF0BA95C9F767
:1005500012C0B13081F09FD0B1E008959CC0672FE8
:10056000782F8827B85F39F0B93FCCF38695779517
:100570006795B395D9F73EF4909580957095619500
:100580007F4F8F4F9F4F0895E89409C097FB3EF42B
:1005900090958095709561957F4F8F4F9F4F9923D0
:1005A000A9F0F92F96E9BB279395F695879577954E
:1005B0006795B795F111F8CFFAF4BB0F11F460FF0E
:1005C0001BC06F5F7F4F8F4F9F4F16C0882311F066
:1005D00096E911C0772321F09EE8872F762F05C07A
:1005E000662371F096E8862F70E060E02AF09A9515
:1005F000660F771F881FDAF7880F9695879597F90A
:10060000089597F99F6780E870E060E008959FEF94
:1006100080EC089500240A94161617061806090699
:10062000089500240A941216130614060506089568
:10063000092E0394000C11F4882352F0BB0F40F4F0
:10064000BF2B11F460FF04C06F5F7F4F8F4F9F4F30
:10065000089557FD9058440F551F59F05F3F71F0B2
:100660004795880F97FB991F61F09F3F79F0879519
:100670000895121613061406551FF2CF4695F1DFA2
:1006800008C0161617061806991FF1CF8695710532
:10069000610508940895E894BB2766277727CB0166
:1006A00097F908950BD0C4CFB5DF28F0BADF18F062
:1006B000952309F0A6CFABCF1124EECFCADFA0F36C
:1006C000959FD1F3950F50E0551F629FF001729FE7
:1006D000BB27F00DB11D639FAA27F00DB11DAA1F06
:1006E000649F6627B00DA11D661F829F2227B00D53
:1006F000A11D621F739FB00DA11D621F839FA00DDE
:10070000611D221F749F3327A00D611D231F849F2D
:10071000600D211D822F762F6A2F11249F57504084
:100720008AF0E1F088234AF0EE0FFF1FBB1F661F1F
:10073000771F881F91505040A9F79E3F510570F0D8
:1007400060CFAACF5F3FECF3983EDCF386957795B8
:100750006795B795F795E7959F5FC1F7FE2B880FD3
:10076000911D9695879597F90895A1E21A2EAA1BD7
:10077000BB1BFD010DC0AA1FBB1FEE1FFF1FA21751
:10078000B307E407F50720F0A21BB30BE40BF50B4E
:10079000661F771F881F991F1A9469F760957095D7
:1007A000809590959B01AC01BD01CF010895A0E01B
:1007B000B0E0EDEDF3E00C949D06FE0135966191FD
:1007C00071918091340190913501AF010E94100424
:1007D0002096E2E00C94B906AEE0B0E0E2EFF3E080
:1007E0000C949B060D891E8986E08C831A830983ED
:1007F0008FEF9FE79E838D839E01275E3F4FCE0143
:1008000001966F89788DA9010E9410042F81388587
:10081000020F131FF80110822E96E4E00C94B70625
:10082000ABE0B0E0E6E1F4E00C948D063C012B0176
:100830005A01FC0117821682838181FD03C06FEF8C
:100840007FEFC6C19AE0892E1E010894211C311C3D
:10085000F3012381F20123FD859123FF81912F0173
:10086000882309F4B2C1853239F423FD859123FF31
:1008700081912F01853229F490E0B3010E94030693
:10088000E7CF982FFF24EE249924FFE1FF15D0F045
:100890009B3269F09C3228F4903259F0933291F4F3
:1008A0000EC09D3249F0903369F441E024C052E01B
:1008B000F52A84E0F82A28C098E0F92A25C0E0E16A
:1008C000FE2A22C0F7FC29C0892F80538A3070F499
:1008D000F6FE05C0989C902C1124980E15C0E89C3B
:1008E000E02C1124E80EF0E2FF2A0EC09E3229F41B
:1008F000F6FC6BC140E4F42A07C09C3619F450E8BA
:10090000F52A02C0983649F4F20123FD959123FFA0
:1009100091912F01992309F0B8CF892F8554833005
:1009200018F08052833038F444E050E0A40EB51E35
:100930005FE359830FC0933631F0933779F09335E5
:1009400009F056C020C0F5018081898342E050E063
:10095000A40EB51E610101E010E012C0F501C080D7
:10096000D180F6FC03C06FEF7FEF02C0692D70E00D
:1009700042E050E0A40EB51EC6010E94F8058C01AD
:100980005FE7F52214C0F501C080D180F6FC03C0FA
:100990006FEF7FEF02C0692D70E042E050E0A40EDF
:1009A000B51EC6010E94ED058C0150E8F52AF3FE44
:1009B00007C01AC080E290E0B3010E940306EA94E7
:1009C0008E2D90E008171907A8F30EC0F601F7FC6A
:1009D0008591F7FE81916F0190E0B3010E940306BB
:1009E000E110EA94015010400115110579F7EAC0B1
:1009F000943611F0993669F5F7FE08C0F5012081AB
:100A000031814281538184E090E00AC0F501808108
:100A100091819C01442737FD4095542F82E090E05E
:100A2000A80EB91E9FE6F92257FF09C050954095C0
:100A3000309521953F4F4F4F5F4FE0E8FE2ACA01A6
:100A4000B901A1012AE030E00E942F06D82ED21869
:100A500040C0953729F41F2D1F7E2AE030E01DC0CD
:100A60001F2D197F9F3661F0903720F4983509F0DB
:100A7000ACC00FC0903739F0983709F0A6C004C059
:100A800028E030E00AC0106114FD146020E130E07D
:100A900004C014FD166020E132E017FF08C0F50124
:100AA000608171818281938144E050E008C0F5014A
:100AB00080819181BC0180E090E042E050E0A40E92
:100AC000B51EA1010E942F06D82ED2188FE7F82E4E
:100AD000F122F6FE0BC05EEFF522D91438F4F4FED5
:100AE00007C0F2FC05C08FEEF82202C01D2D01C028
:100AF000192DF4FE0DC0FE01ED0DF11D8081803336
:100B000019F499EEF92208C01F5FF2FE05C003C078
:100B10008F2D867809F01F5F0F2DF3FC14C0F0FEB7
:100B20000FC01E1510F09D2C0BC09D2C9E0C911A11
:100B30001E2D06C080E290E0B3010E9403061F5FF5
:100B40001E15C0F304C01E1510F4E11A01C0EE24F6
:100B500004FF0FC080E390E0B3010E94030602FF90
:100B60001DC001FD03C088E790E00EC088E590E05D
:100B70000BC0802F867891F001FF02C08BE201C08C
:100B800080E2F7FC8DE290E0B3010E94030606C00C
:100B900080E390E0B3010E9403069A94D914C0F355
:100BA000DA94F101ED0DF11D808190E0B3010E9416
:100BB0000306DD20A9F706C080E290E0B3010E94A1
:100BC0000306EA94EE20C1F743CEF30166817781F4
:100BD000CB012B96E2E10C94A906FC010590615033
:100BE00070400110D8F7809590958E0F9F1F089543
:100BF000FC016150704001900110D8F780959095EC
:100C00008E0F9F1F08950F931F93CF93DF938C0137
:100C1000EB018B8181FF1BC082FF0DC02E813F81C4
:100C20008C819D812817390764F4E881F98101934B
:100C3000F983E88306C0E885F985802F0995892B1B
:100C400031F48E819F8101969F838E8302C00FEFC6
:100C50001FEFC801DF91CF911F910F910895FA0105
:100C6000AA27283051F1203181F1E8946F936E7FEB
:100C70006E5F7F4F8F4F9F4FAF4FB1E03ED0B4E0DC
:100C80003CD0670F781F891F9A1FA11D680F791F1D
:100C90008A1F911DA11D6A0F711D811D911DA11D2E
:100CA00020D009F468943F912AE0269F112430193E
:100CB000305D3193DEF6CF010895462F4770405DD9
:100CC0004193B3E00FD0C9F7F6CF462F4F70405D88
:100CD0004A3318F0495D31FD4052419302D0A9F7E3
:100CE000EACFB4E0A6959795879577956795BA95DD
:100CF000C9F700976105710508959B01AC010A2EA3
:100D000006945795479537952795BA95C9F7620F79
:100D1000731F841F951FA01D08952F923F924F921D
:100D20005F926F927F928F929F92AF92BF92CF927B
:100D3000DF92EF92FF920F931F93CF93DF93CDB784
:100D4000DEB7CA1BDB0B0FB6F894DEBF0FBECDBFFC
:100D500009942A88398848885F846E847D848C84CD
:100D60009B84AA84B984C884DF80EE80FD800C81D6
:100D70001B81AA81B981CE0FD11D0FB6F894DEBFB9
:0C0D80000FBECDBFED010895F894FFCF29
:100D8C00256425632564256325640A0D0053657469
:100D9C00736572766F2825642C25303364290A0D0F
:100DAC00000000000200000000B301000000000081
:00000001FF
