:100000000C943E000C945B000C945B000C945B0021
:100010000C945B000C945B000C945B000C945B00F4
:100020000C945B000C945B000C945B000C945B00E4
:100030000C945B000C945B000C945B000C945B00D4
:100040000C945B000C945B000C94E6000C945B0039
:100050000C945B000C945B000C945B000C945B00B4
:100060000C945B000C945B000C945B000C945B00A4
:100070000C945B000C945B000C945B0011241FBE7D
:10008000CFEFD0E1DEBFCDBF11E0A0E0B1E0EAE10B
:10009000FDE002C005900D92A433B107D9F711E03D
:1000A000A4E3B1E001C01D92A834B107E1F70E94BA
:1000B0008A010C948B060C94000093E890937A00CC
:1000C000F894ECE7F0E09081907E90839081982BFB
:1000D000908378940895F894EAE7F0E080818F7730
:1000E0008083ECE7F0E080818F618083E8E7F0E0D7
:1000F000808180831092790078940895F89490918B
:100100007C00907E90937C0090917C00982B909343
:100110007C00789480917A00806480937A0080914A
:100120007A0084FFFCCF2091780030917900C901DA
:100130000895F894ECE7F0E09081907E90839081B0
:10014000982B9083789408958091C80087FFFCCF06
:100150008091CE000895982F8091C80085FFFCCF34
:100160009093CE000895EF92FF920F931F937B011F
:100170008C010E94A90234E0EE0CFF1C001F111F2D
:100180003A95D1F760E070E489E191E0A801970128
:100190000E946103C901DA010197A109B109292F60
:1001A0003A2F4B2F55270196A11DB11D2093CD004D
:1001B00081508093CC0088E18093C9008EE08093C9
:1001C000CA001F910F91FF90EF9008951F920F9218
:1001D0000FB60F9211242F933F934F935F936F931A
:1001E0007F938F939F93AF93BF93EF93FF93609110
:1001F0003A0170913B0180913C0190913D0129E0D1
:1002000030E040E050E00E94610361157105810516
:10021000910509F05BC08091360190913701A09162
:100220003801B09139010196A11DB11D80933601AD
:1002300090933701A0933801B09339018091250143
:10024000813009F520913601309137014091380114
:10025000509139018091400190914101A0E0B0E0BE
:10026000281739074A075B0788F185B1809585B95A
:100270001092360110923701109238011092390114
:100280001092250123C0882309F520913601309171
:100290003701409138015091390180913E01909190
:1002A0003F01A0E0B0E0281739074A075B0770F06C
:1002B00085B1809585B91092360110923701109260
:1002C00038011092390181E08093250180913A0133
:1002D00090913B01A0913C01B0913D010196A11D7F
:1002E000B11D80933A0190933B01A0933C01B093E0
:1002F0003D01FF91EF91BF91AF919F918F917F91C0
:100300006F915F914F913F912F910F900FBE0F9082
:100310001F901895AF92BF92CF92DF92EF92FF920B
:100320000F931F93CF93DF9360E072EC81E090E036
:100330000E94B3000E94A9021AB88FEF8BB984B94A
:1003400085B980E197E22CEC31E0F9013197F1F7C2
:100350000197D9F780E090E060E070E040E050E085
:100360000E947F0284E090E00E945D0090E0A92E50
:1003700091E0B92E8CE2E82EF12C84E090E00E940E
:100380007E008C01B801882777FD8095982F24E6A0
:1003900030E040E050E00E942E032FEF33E040E0D9
:1003A00050E00E94830369018DB79EB740970FB656
:1003B000F8949EBF0FBE8DBFEDB7FEB73196ADB7B7
:1003C000BEB71296BC92AE92119733832283F58208
:1003D000E48288EE93E0BE010E944D03778366833A
:1003E000F186E0868091250182871386F586E48672
:1003F000178706870E949E03809129002DB73EB77C
:10040000205F3F4F0FB6F8943EBF0FBE2DBF84FD57
:100410001CC08091290082958695817020912900C9
:10042000229526952695217040912900441F442746
:10043000441F30E090E02823392350E02423352363
:10044000232B19F0C8EED3E03CC08091290085FD34
:100450001BC08091290082958170209129002295EE
:1004600026952695217040912900441F4427441F5A
:1004700030E090E02823392350E024233523232B38
:1004800019F0C2E3D0E01DC08091290086FD19C09B
:1004900080912900829581702091290022952695CE
:1004A000217040912900441F4427441F30E090E010
:1004B0002823392350E024233523232B11F0CAE0CD
:1004C000D0E0F894BE0180E090E09601442737FD2B
:1004D0004095542F0E942E0324E630E040E050E087
:1004E0000E9483033093410120934001DE01A21B4F
:1004F000B30BB0933F01A0933E0178943ECF892B7C
:10050000B1F46130710541F447BD789480916E007B
:10051000826080936E00089584B584BD85B5826045
:1005200085BD789480916E00816080936E000895FF
:10053000882369F0813059F4962F88279093890099
:100540008093880070938B0060938A00089567BD44
:10055000089586E291E0909345018093440160E024
:1005600072EC81E090E00E94BB0208950E94AB0013
:1005700080E090E008959B01AC0184E0220F331FDE
:10058000441F551F8A95D1F760E070E489E191E03E
:100590000E946103215030403093C5002093C40075
:1005A00088E18093C10086E08093C2000895982F6F
:1005B0008091C00085FFFCCF9093C6000895FC0198
:1005C00007C08091C00085FFFCCF9093C600319694
:1005D00090819923B1F708950F931F93DF93CF93E1
:1005E000CDB7DEB764970FB6F894DEBF0FBECDBFB0
:1005F0002DB73EB7285030400FB6F8943EBF0FBE1F
:100600002DBFEDB7FEB731968E010F5F1F4FADB70F
:10061000BEB712961C930E93119721E131E03383FC
:10062000228395838483778366830E94B3032DB7E7
:100630003EB7285F3F4F0FB6F8943EBF0FBE2DBFA9
:10064000C8010E94DF0264960FB6F894DEBF0FBEA9
:10065000CDBFCF91DF911F910F910895629FD0017F
:10066000739FF001829FE00DF11D649FE00DF11D6D
:10067000929FF00D839FF00D749FF00D659FF00D1C
:100680009927729FB00DE11DF91F639FB00DE11D09
:10069000F91FBD01CF0111240895AA1BBB1B51E115
:1006A00007C0AA1FBB1FA617B70710F0A61BB70BE2
:1006B000881F991F5A95A9F780959095BC01CD0187
:1006C0000895A1E21A2EAA1BBB1BFD010DC0AA1F93
:1006D000BB1FEE1FFF1FA217B307E407F50720F0AB
:1006E000A21BB30BE40BF50B661F771F881F991F26
:1006F0001A9469F760957095809590959B01AC016F
:10070000BD01CF01089597FB092E05260ED057FD98
:1007100004D0D7DF0AD0001C38F4509540953095AE
:1007200021953F4F4F4F5F4F0895F6F79095809575
:10073000709561957F4F8F4F9F4F0895A0E0B0E077
:10074000E4EAF3E00C946406FE0135966191719140
:100750008091440190914501AF010E94D7032096FA
:10076000E2E00C948006AEE0B0E0E9EBF3E00C943C
:1007700062060D891E8986E08C831A8309838FEFB8
:100780009FE79E838D839E01275E3F4FCE0101969A
:100790006F89788DA9010E94D7032F813885020FB8
:1007A000131FF80110822E96E4E00C947E06ABE055
:1007B000B0E0EDEDF3E00C9454063C012B015A013E
:1007C000FC0117821682838181FD03C06FEF7FEFEA
:1007D000C6C19AE0892E1E010894211C311CF30128
:1007E0002381F20123FD859123FF81912F0188232D
:1007F00009F4B2C1853239F423FD859123FF81913B
:100800002F01853229F490E0B3010E94CA05E7CF99
:10081000982FFF24EE249924FFE1FF15D0F09B329E
:1008200069F09C3228F4903259F0933291F40EC062
:100830009D3249F0903369F441E024C052E0F52A3A
:1008400084E0F82A28C098E0F92A25C0E0E1FE2AD1
:1008500022C0F7FC29C0892F80538A3070F4F6FE3D
:1008600005C0989C902C1124980E15C0E89CE02C93
:100870001124E80EF0E2FF2A0EC09E3229F4F6FCA5
:100880006BC140E4F42A07C09C3619F450E8F52AFD
:1008900002C0983649F4F20123FD959123FF91910E
:1008A0002F01992309F0B8CF892F8554833018F090
:1008B0008052833038F444E050E0A40EB51E5FE36C
:1008C00059830FC0933631F0933779F0933509F09F
:1008D00056C020C0F5018081898342E050E0A40E1B
:1008E000B51E610101E010E012C0F501C080D180A9
:1008F000F6FC03C06FEF7FEF02C0692D70E042E0AD
:1009000050E0A40EB51EC6010E94BF058C015FE732
:10091000F52214C0F501C080D180F6FC03C06FEF52
:100920007FEF02C0692D70E042E050E0A40EB51EDA
:10093000C6010E94B4058C0150E8F52AF3FE07C0F9
:100940001AC080E290E0B3010E94CA05EA948E2D9D
:1009500090E008171907A8F30EC0F601F7FC85917F
:10096000F7FE81916F0190E0B3010E94CA05E1108A
:10097000EA94015010400115110579F7EAC0943648
:1009800011F0993669F5F7FE08C0F5012081318133
:100990004281538184E090E00AC0F5018081918119
:1009A0009C01442737FD4095542F82E090E0A80E2B
:1009B000B91E9FE6F92257FF09C050954095309522
:1009C00021953F4F4F4F5F4FE0E8FE2ACA01B90122
:1009D000A1012AE030E00E94F605D82ED21840C0CE
:1009E000953729F41F2D1F7E2AE030E01DC01F2DF2
:1009F000197F9F3661F0903720F4983509F0ACC02C
:100A00000FC0903739F0983709F0A6C004C028E02D
:100A100030E00AC0106114FD146020E130E004C031
:100A200014FD166020E132E017FF08C0F501608177
:100A300071818281938144E050E008C0F50180819A
:100A40009181BC0180E090E042E050E0A40EB51E30
:100A5000A1010E94F605D82ED2188FE7F82EF122B8
:100A6000F6FE0BC05EEFF522D91438F4F4FE07C091
:100A7000F2FC05C08FEEF82202C01D2D01C0192D19
:100A8000F4FE0DC0FE01ED0DF11D8081803319F4DF
:100A900099EEF92208C01F5FF2FE05C003C08F2D3A
:100AA000867809F01F5F0F2DF3FC14C0F0FE0FC015
:100AB0001E1510F09D2C0BC09D2C9E0C911A1E2D06
:100AC00006C080E290E0B3010E94CA051F5F1E15B8
:100AD000C0F304C01E1510F4E11A01C0EE2404FF97
:100AE0000FC080E390E0B3010E94CA0502FF1DC061
:100AF00001FD03C088E790E00EC088E590E00BC0E0
:100B0000802F867891F001FF02C08BE201C080E265
:100B1000F7FC8DE290E0B3010E94CA0506C080E3B5
:100B200090E0B3010E94CA059A94D914C0F3DA94F4
:100B3000F101ED0DF11D808190E0B3010E94CA0525
:100B4000DD20A9F706C080E290E0B3010E94CA054B
:100B5000EA94EE20C1F743CEF30166817781CB01A1
:100B60002B96E2E10C947006FC01059061507040F8
:100B70000110D8F7809590958E0F9F1F0895FC0166
:100B80006150704001900110D8F7809590958E0FBC
:100B90009F1F08950F931F93CF93DF938C01EB0159
:100BA0008B8181FF1BC082FF0DC02E813F818C8114
:100BB0009D812817390764F4E881F9810193F9834D
:100BC000E88306C0E885F985802F0995892B31F4E3
:100BD0008E819F8101969F838E8302C00FEF1FEF4E
:100BE000C801DF91CF911F910F910895FA01AA27B3
:100BF000283051F1203181F1E8946F936E7F6E5F60
:100C00007F4F8F4F9F4FAF4FB1E03ED0B4E03CD00D
:100C1000670F781F891F9A1FA11D680F791F8A1FF0
:100C2000911DA11D6A0F711D811D911DA11D20D057
:100C300009F468943F912AE0269F11243019305D11
:100C40003193DEF6CF010895462F4770405D419302
:100C5000B3E00FD0C9F7F6CF462F4F70405D4A334F
:100C600018F0495D31FD4052419302D0A9F7EACF17
:100C7000B4E0A6959795879577956795BA95C9F746
:100C800000976105710508959B01AC010A2E069439
:100C90005795479537952795BA95C9F7620F731FF2
:100CA000841F951FA01D08952F923F924F925F922F
:100CB0006F927F928F929F92AF92BF92CF92DF926C
:100CC000EF92FF920F931F93CF93DF93CDB7DEB7D1
:100CD000CA1BDB0B0FB6F894DEBF0FBECDBF099465
:100CE0002A88398848885F846E847D848C849B84BC
:100CF000AA84B984C884DF80EE80FD800C811B81CA
:100D0000AA81B981CE0FD11D0FB6F894DEBF0FBEF8
:0A0D1000CDBFED010895F894FFCF68
:100D1A0025642563256425632564256325640A0DF6
:100D2A0000536574736572766F2825642C253033F9
:100D3A0064290A0D00010000000200000000B6024A
:040D4A0000000000A5
:00000001FF
